:400000000080002011000000410D0000410D000008B5044B1A6803F53F5302331A6000F097FE00BFFA46004010B5054C237833B9044B13B10448AFF300800123237010BD46
:400040009084FF1F000000008C190000084B10B51BB108490848AFF300800848036803B910BD074B002BFBD0BDE81040184700BF000000009484FF1F8C190000C880FF1F22
:4000800000000000024A136801331360704700BFC484FF1F70B5B44800F01CFF00F028FF01F0D8F800F084FF01F068F90020AF4B83F8AD0001F0CEF95A280CD107E0204687
:4000C00001F0C8F9AA4B18550134E4B200E00024052CF4D90CE000215A2001F053F9012304E03021A24AD1540133DBB2052BF8D99F48447901798278C378407804F00F051C
:4001000001F00F01A1EB8101CC0004EB051402F00F0202EB8202510003F00F0303EB830303EB83039A000A44A31800F00F021344904A1370062001F08DF95A280DD108E0ED
:40014000A51D284601F086F98B4B58550134E4B200E00024052CF3D90DE006215A2001F011F9012305E09A1D3020834988540133DBB2052BF7D98048447901798278C3785A
:40018000407804F00F0501F00F01A1EB8101CC0004EB051402F00F0202EB8202510003F00F0303EB830303EB83039A000A44A31800F00F021344714A137000266B4B1E7047
:4001C000142001F047F96E4B187062B600F030FF0546042807D809E000F0F8FE694B18550134E4B200E00024AC42F5D3042000F00BFE644B1B7A4C2B6AD007D82C2B30D00F
:400200003C2B4FD01C2B40F0A8800EE0532B73D0DD2B00F097804E2B40F09F8080E00021584AD1540133DBB200E00023132BF6D9002306E04D4A1A44202182F89C10013361
:40024000DBB2072BF6D900234F4A1370474A82F8AD300A2681E000214A4AD1540133DBB200E00023132BF6D9002306E03F4A1A44202182F839100133DBB2042BF6D90023B7
:4002800006E03A4A1A44202182F89C100133DBB2072BF6D90B2660E000213A4AD1540133DBB200E00023132BF6D9002306E02F4A1A44202182F89C100133DBB2072BF6D938
:4002C00000264AE000212F4AD1540133DBB200E00023132BF6D9002304E020212B4AD1540133DBB2072BF8D9CD2636E00021254AD1540133DBB200E00023132BF6D9AC2E0F
:400300002BD11A4B012283F8AD20187800F0EEF8002622E000211B4AD1540133DBB200E00023132BF6D90026104B83F8AD60184B1E60154B1E7010E00021124AD154013349
:40034000DBB200E00023132BF6D90026074B83F8AD600F4B1E600C4B1E700A4BDB78832B48D10A2E46D12FE085000000D084FF1FC884FF1FC087FF1FAC87FF1FB287FF1FE8
:400380008A87FF1FC487FF1F8887FF1F8C87FF1FC484FF1F5049C95C481EC0B2FD281ED8A1F16100C0B2192806D8DA1F4B480244203982F89C1004E0DA1F4848024482F82E
:4003C0009C100133DBB200E007230E2BE2D9002306E00021404AD1540133DBB200E00023132BF6D93D4C207800F080F8012384F8AD30AC26384BDB78832B33D1CD2E31D18B
:400400001CE0354B1B5D5A1ED2B2FD2A21D8A3F16102D2B2192A04D8E11F203B304A535402E0E11F2E4A53542D480023037201F0D9F92C4B18700134E4B200E007240E2CB6
:40044000DFD9002306E00021234AD1540133DBB200E00023132BF6D91421224B187800F091FF00261C4BDB78832B7FF4AEAE0B2E7FF4ABAE19E01849C95C481EC0B2FD28A7
:400480001ED8A1F16100C0B2192806D8DA1F13480244203982F8391004E0DA1F0F48024482F839100133DBB200E007230E2BE2D9002306E00021084AD1540133DBB200E0CE
:4004C0000023132BF6D90122074B1A700022034B83F8AD200A2678E6C487FF1FD084FF1F8C87FF1F8A87FF1F8887FF1F70B50546BC4B1B78BC4830224271002202F13001C6
:4005000001711A46B94B83FB02135B1103F13001C170642101FB1321B54B83FB0132CB17C3EBA20303F13002827003EB83035A008A1A30324270AF4B1B78002B35D1AE4BA0
:400540001B68AE4A1278B3FBF2F2AD4BA3FB02135B0BAC4903F13000488142F2107000FB1320A94BA3FB00239B0903F130020A814FF47A7202FB13029C4BA3FB02035B09D6
:4005800003F13000C880642000FB13209F4BA3FB0023DB0803F130028A8003EB83035A00821A30324A80012418E0994A92F83910944B598192F83A10198192F83B10D980A1
:4005C00092F83C10998092F83D205A80EBE72146854B185D00F0D6FE0134E4B2052CF6D900260FE08B4B185D00F052FD0134E4B200E00024052CF5D9042000F005FC00F0CC
:4006000017FD46B2002EF4D00C2E07DC27E000F0DDFC814B18550134E4B200E00024B442F5DB1CE07B4B185D00F032FD0134E4B200E00024052CF5D9042000F0E5FB00F0F9
:40064000F7FC46B20C2E0ADD06E000F0BFFC724B18550134E4B200E00024B442F5DB6E4B1B7A002BE5D0002406E06A4B2344187A00F0FEFD0134E4B2172CF6D9002407E065
:40068000644B234493F8200000F0F2FD0134E4B2172CF5D9002407E05E4B234493F8380000F0E6FD0134E4B2172CF5D9594B93F8500000F0DDFD002407E0564B234493F84A
:4006C000540000F0D5FD0134E4B2172CF5D9514B93F8500000F0CCFD002407E04D4B234493F86C0000F0C4FD0134E4B2172CF5D9484B93F8500000F0BBFD002407E0454B99
:40070000234493F88C0000F0B3FD0134E4B20C2CF5D9414C207A0009303000F0A9FD207A00F00F00303000F0A3FD2F2000F0A0FDE0790009303000F09BFDE07900F00F009D
:40074000303000F095FD2F2000F092FDA0790009303000F08DFDA07900F00F00303000F087FD2C4B93F8500000F082FD002407E0284B234493F89C0000F07AFD0134E4B2E2
:400780000C2CF5D9244CA07A0009303000F070FDA07A00F00F00303000F06AFD3A2000F067FDE07A0009303000F062FDE07A00F00F00303000F05CFD3A2000F059FD207B16
:4007C0000009303000F054FD207B00F00F00303000F04EFD0F4B93F8500000F049FD002424E000BFC087FF1FC884FF1F1F85EB51676666668887FF1FC484FF1F8A87FF1FBE
:400800005917B7D19887FF1FD34D6210CDCCCCCCD084FF1FCC80FF1FC487FF1FA94B234493F86C0000F024FD0134E4B2172CF5D9A54B1B78AB4240F0B680A34B93F8AD3010
:40084000012B1DD108E09F4B234493F8AC0000F00FFD0134E4B200E00024172CF3D9994B93F8500000F004FD002407E0954B234493F86C0000F0FCFC0134E4B2172CF5D957
:40088000904B93F8500000F0F3FC002407E08D4B234493F8C40000F0EBFC0134E4B20C2CF5D9894B93F8AD30012B08D0052410E0864B185D00F0DCFC013CE4B200E005241F
:4008C000002CF5D10BE0824B185D00F0D1FC013CE4B2002CF7D17F4A137801331370794B93F8500000F0C4FC002407E0754B234493F8D40000F0BCFC0134E4B20C2CF5D9F1
:40090000002407E0704B234493F89C0000F0B0FC0134E4B2072CF5D96A4B93F8500000F0A7FC002407E0674B234493F8E40000F09FFC0134E4B20C2CF5D9634B93F8AD30D3
:40094000012B09D005241CE0634B13F8140000F08FFC013CE4B200E00524002CF4D112E02546C4F106035D4A1278934202D12E2000F07EFC5A4B13F8150000F079FC013C25
:40098000E4B2002CECD1202000F072FC4D4C94F8F40000F06DFC94F8500000F069FC0122494B83F8AD20002407E0464B234493F86C0000F05DFC0134E4B2172CF5D9414BCD
:4009C00093F8500000F054FC002407E03D4B234493F8F80000F04CFC0134E4B2172CF5D9384C94F8500000F043FC94F8500000F03FFC002407E0334B234493F8100100F039
:400A000037FC0134E4B2172CF5D92E4B93F8500000F02EFC002407E02A4B234493F86C0000F026FC0134E4B2172CF5D9254B93F8500000F01DFC002407E0224B234493F8AF
:400A4000280100F015FC0134E4B2172CF5D91D4B93F8500000F00CFC002407E0194B234493F8400100F004FC0134E4B2172CF5D9144C94F8500000F0FBFB94F8500000F0D9
:400A8000F7FB94F8500000F0F3FB94F8500000F0EFFB94F8500000F0EBFB00230BE00C4AD15C0A4AD1540E4A32F813100A4A22F813100133DBB2052BF1D90022094B1A7027
:400AC00070BD00BFCC80FF1FD084FF1FA487FF1FC884FF1FC087FF1FB487FF1F8987FF1F9887FF1F8887FF1FFEE700BFF0B40022174611E050F82760F3B226F0FF0608E0F6
:400B000001EB420511F812406D78A5550132013BDBB2002BF4D101371A2FEBD9F0BC7047064B1B78DBB203F00701054A11701B09013213704422034B1A707047CF01004990
:400B40006E5800407658004008B50A46002100F084FE08BD38B51925294B1D801823294A13704FF49C71023211800232137045F6BF5102321180023213700222224B1A70E1
:400B800008224FF040231A70032103F5007319701E4B1B78DBB21E490B701E4B1A8041F25122023B1A8000240CE01B4B1B7803F0010343EA440404F003044FF4F07000F0D9
:400BC0005FFC013D0DB1032CEFD115B90320FFF78BFF124B4FF480721A8007221A7000220F490A704820023108701A700222033B1A700C4A137843F00703137038BD00BF8D
:400C000080400040824000400043004008010049A146004022420040254200400440004006400040A243004008B500F00BFE08BD38B572B6334A137843F0040313700024C3
:400C40000CE0314D630019194A0011462A44084691882858FFF778FF0134E4B2092CF0D900240BE02849A3001819420088188022016CC06BFFF7D8FF0134E4B2002CF1D054
:400C800022494FF09040FFF731FF214A137843F0020313701032137843F0020313701D4C237843F040032370A2F58632513A137843F0100313700A2217491848FFF7B4FF8B
:400CC000082217491748FFF7AFFF0A2216491748FFF7AAFF164A137843F008031370154D61232B70FFF736FF81232B700122124B1A70FFF715FF0E2221461048FFF794FFBB
:400D000038BD00BFE8460040901900006C00004803500140A043004090050048105100409C05004822510040A405004830510040224300400048004004000840B043004005
:400D400008B500F053FD03680C2B00D1FEE7FEE708B5104E104D16E029686B68AC68002204E051F8040B43F8040B0432A242F8D1E868002203E0002143F8041B04328242FE
:400D8000F9D11035013E002EE6D100F035FDFFF781F9FEE701000000001B000008B5104A104B1A60104A136843F40073136000230AE0032B03D80D4A52F8231000E00C4970
:400DC0000C4A42F8231001332F2BF2D90A4B1A780A4B1A70074A0A4B1A60FFF729FF08BD0004FA050CED00E014ED00E000000000410D00000080FF1FBC760040C080FF1F95
:400E000008ED00E001BE704710B5044605E0084B186800F035FBA4F50044B4F5004FF6D8034B586800FB04F000F02AFB10BD00BF1484FF1F08B5034B1B7A00FB03F000F00B
:400E40001FFB08BD1484FF1F70B504460E46074B1D681F2802D90020FFF7D4FF04F01F04103455F8240045F8246070BD08ED00E038B504460D46072902D90020FFF7C2FF3D
:400E80001F2C02D90020FFF7BDFF04F01F0000F1604000F564406D01EDB2057038BD00BF014B1B68D864704708ED00E04001C0B2014B1870704700BF03E400E00822014BF6
:400EC0001A60704700E100E00822014B1A60704780E100E010B50446FFF7F6FF2046FFF7DFFF0720FFF7E2FFFFF7E8FF10BD00BF0822014B1A60704780E200E008B512497C
:400F00000120FFF7A1FF07210120FFF7B1FF00220E4B1A7072220E4B1A70202203F201131A700C490220FFF78FFF07210220FFF79FFF0622084B1A70472210331A70022282
:400F400052331A7008BD00BF01110000AC84FF1F85640040991100002564004010B500F097FA04460E4A137843F02003137002F20112137843F0100313700A4A022313604F
:400F800009490B7843F010030B70042307490B60136000F0D1F9204600F07EFA10BD00BF9564004000E100E09764004080E200E008B5054B5B7823B9FFF7A0FF0122024BFA
:400FC0005A70FFF7CBFF08BDAC84FF1F0222134B1A60134A9378DBB2D178C9B2127912F0FF0F01D18B4211D00E4AD05CC0B20133DBB2132B00D90023094A9370137913F0AE
:40100000FF0F06D00022064B1A7102E0064B1878C0B20222054B1A60704700BF80E100E0AC84FF1FE087FF1F4665004000E100E00222144B1A60144B9A78D2B2DB78DBB2A3
:401040009A4206D1104B1B7913F0FF0F15D0142014E00D4B9A78D2B2DB78DBB29A4205D2094AD3789078181AC0B207E0064AD3789078181A1430C0B200E000200222034B01
:401080001A60704780E100E0AC84FF1F00E100E0164BD9799B79DBB2994205D25A1E914214BF0022012204E0CA1A072A14BF00220122002AECD1994207D10D4B1B7813F0AD
:4010C000040F02D10B4B18707047072900D90021094B58540131054BD971054B1B7813F0020F02D00422054B1A607047AC84FF1F6764004047640040D887FF1F00E200E08C
:401100001D4B1B78DBB213F01E0F05D01B4803F01E0201780A43027003F0200303F0FF0233B3174B1978C9B2164B1B78DBB21648C154164B1B7813F0FF0F02D00121144BCA
:40114000197010490B780133DBB20B700B78DBB2132B02D900210B4B19700A4B1978C9B20C4B1B78DBB2994202D10121074B1970002AC5D1704700BF66650040AC84FF1F93
:4011800046650040AF84FF1FE087FF1FB084FF1FB184FF1FAE84FF1F13E0104B1B78DBB2072B02D900220D4B1A700C4A1378DBB20B49CB5CDBB20B490B7013780133DBB269
:4011C0001370064B1B78DBB2074A1278934204D0064B1B7813F0040FDFD07047B284FF1FD887FF1F47640040B384FF1F6764004008B509490020FFF727FE07210020FFF773
:4012000037FE0622054B1A70472210331A70022203F5A7731A7008BDE11200002664004010B500F035F90446084A137843F0100313700123064A1360A2F5C072136000F019
:4012400089F8204600F028F910BD00BF9465004080E200E008B5054B1B7823B9FFF7C8FF0122024B1A70FFF7DBFF08BDB584FF1F164B99785B78DBB2994205D25A1E914281
:4012800014BF0022012204E0CA1A042A14BF00220122002AECD1994207D10D4B1B7813F0040F02D10B4B18707047042900D90021094B58540131054B9970054B1B7813F06D
:4012C000020F02D00122054B1A607047B584FF1F6465004044650040F487FF1F00E200E013E0104B1B78DBB2042B02D900220D4B1A700C4A1378DBB20B49CB5CDBB20B497D
:401300000B7013780133DBB21370064B1B78DBB2074A1278934204D0064B1B7813F0040FDFD07047B684FF1FF487FF1F44650040B784FF1F64650040054A137843F00103C1
:4013400013701032137843F001031370704700BFA2430040054A137843F0020313701032137843F002031370704700BFA243004008B500F0EBF800F0F3F808BD08B5FFF72D
:40138000F7FF08BD30B583B00C468DF8070000F027F9B4F5006F52D22509A4EB0514A4B200F0CAF900284CD101230DF107022146402000F041F9044607282FD1234B1B7876
:4013C00013F0020FFAD0214B1B7813F0020F06D01E4B1B789B0805D04FF0FF3403E04FF0FF3400E00024E4B9194A537812782946402000F05DF9072816D1144B1B7813F072
:40140000020FFAD0114B1B7813F0020F0FD00F4B1B789B0810D04FF0FF340DE0012809D10AE04FF0FF3407E04FF0FF3404E04FF0FF3401E04FF0FF3400F0A4F902E001242B
:4014400000E00424204603B030BD00BF22470040FC87FF1F38B5044600F01AF8054600F0A9F804F1804000F500400478E4B200F0AFF8284600F010F8204638BD00000000EC
:401480000230800803D000BF01380046FCD17047EFF3108072B6704780F31088704700BF10B500F09DF800F047F9D0B900F086F90446072812D102E00120FFF7BBFC0A4B38
:4014C0001B7813F0020FF7D0074B1B7813F0020F04D0054B1B789B0800D1002400F052F900E00424204610BD2247004010B500F077F800F021F910BB012000F0FFF80728E7
:4015000018D102210F4800F07DF802280AD102E00120FFF78FFC0C4B1B7813F0020FF7D0002409E0084B1B7813F0020FE9D04FF0FF3401E04FF0FF3400F024F900E00424FB
:40154000204610BDFC87FF1F2247004008B5FFF7A7FF034610B9FFF7C9FF0346184608BD08B5FFF795FF0F4A137843F0080313701032137843F008031370C8220A4B1A7016
:401580000A4A137843F0100313701032137843F010031370064B1B7813F0200FFAD0FFF77BFF08BDA043004001470040AC43004000470040054A137843F001031370034B95
:4015C0001B7813F0020FFAD0704700BF02470040024A137803F0FE03137070470247004008B5FFF755FF064A137843F0080313701032137843F008031370FFF74DFF08BDB5
:40160000A043004070B506460D4600240CE00120FFF710FC064B1B7813F0010FF7D0054B1B7833550134E4B2AC42F3D3204670BD224700402047004030B43E2801D81F2B98
:4016400003D93F2827D90F2B27D8174C247814F0020F24D0154CB6252570D4252570012525700234247814F0020F1AD10F4C2070C1F300202070C9B22170591EC9B221701C
:40168000002104E0545C094804700131C9B29942F8D3072006E0012004E0012002E0042000E0092030BC7047224700402047004030B4104C247814F0020F15D00E4CB6251D
:4016C0002570D8252570052525700234247814F0020F0BD1084C2070080A2070C9B2217022702370072002E0042000E0092030BC704700BF22470040204700400C4B1B78B8
:4017000013F0020F0FD00B4BB6221A70E1221A700E221A7002331B7813F0020F05D1054B187007207047042070470920704700BF224700402047004010B5FFF7A9FE0F4BC9
:401740001B78A3B901220D4B1A700D4B1B6813F0010F0ED00A4A136823F00103136000BF00BF00BF0122054B5A60002402E0042400E00024FFF790FE204610BDBC84FF1F9F
:401780000400084008B5FFF783FE0A4B00221A705B68012B0AD1084A136843F00103136000BF00BF00BF0022024B5A60FFF774FE08BD00BFBC84FF1F04000840074B1B7886
:4017C00013F0020F08D0064BB6221A70E0221A700D221A70072070470420704722470040204700400A22002100F0C6B8014B1868704700BF8484FF1F0E4B70B51E460E4C9D
:401800000025E41AA410A54204D056F8253098470135F8E700F062F9084B094C1E46E41AA4100025A54204D056F8253098470135F8E770BDE81A0000E81A0000E81A0000CC
:40184000F01A000010B5431E0A44914204D011F8014B03F8014FF8E710BD03460244934202D003F8011BFAE7704700002DE9F0470F4680463F48D0F800903D4615F8014BEF
:4018800009EB0400407800F0080000F0FF0608B12F46F2E72D2C03D1BD1C7C78012603E02B2C04BF7C78BD1C13B1102B0AD15BE0302C57D1287800F0DF0058284DD16C780F
:4018C00010230235002E14BF4FF0004C6FF0004CBCFBF3FA0027384603FB1ACC09EB040E9EF801E01EF0040F01D0303C0BE01EF0030E1BD0BEF1010F0CBF4FF0370E4FF0FD
:40190000570ECEEB0404A34210DDB7F1FF3F0AD0504506D801D1644503DC03FB0040012701E04FF0FF3715F8014BD7E77B1C0CD1002E4FF0220314BF4FF000406FF0004058
:40194000C8F800302AB9BDE8F08706B1404272B107B1691E1160BDE8F0873024002BB1D10823AFE70A23ADE7302CA3D0AAE7BDE8F08700BF8884FF1F13460A46014602482E
:401980000068FFF773BF00BF8484FF1F00000000005100401000405100403000C05100401000F0510040100000000140001000140140000280160140800500400140000A8F
:4019C000004C014000020050014020000016014010050048800043000020202020202020202028282828282020202020202020202020202020202020208810101010101020
:401A000010101010101010101004040404040404040404101010101010104141414141410101010101010101010101010101010101010101101010101010424242424242F8
:401A400002020202020202020202020202020202020202021010101020000000000000000000000000000000000000000000000000000000000000000000000000000000DE
:401A80000000000000000000000000000000000000000000000000000000000000000000000000000000000000000000000000000000000000000000000000000000000026
:401AC00000000000000000000000000000000000000000000000000000000000F8B500BFF8BC08BC9E4670474D0000009D0D0000F8B500BFF8BC08BC9E46704729000000C8
:401B0000101B0000C880FF1FC803000070030000000000005AA50381200700002020204C414452494C4C4552412053414E5441464520202020202020204E697420383630E5
:401B40002E3030302E3736322020202020202020415620435241203920233734202D2030382020200A00000020202020202020424F474F544120442E432E202020202020A8
:401B80002A2A2A2A2A2A2A2A2A2A2A2A2A2A2A2A2A2A2A2A2A2A2A2A2A2A2A2A2A2A2A2A46656368612020202020203A20000000486F7261202020202020203A2000000030
:401BC000202020202020202020434F5049412020202020202020202056656E7461204E6F2020203A20000000506C6163612020202020203A20000000566F6C756D656E2083
:401C00002020203A20000000470000004669726D613A2020202020202020202020202020202020205F5F5F5F5F5F5F5F5F5F5F5F5F5F5F5F5F5F5F5F5F5F5F5F2020475279
:401C4000414349415320504F5220535520434F4D505241202020202020205655454C56412050524F4E544F2020202020566F6C2E2064697370656E7361646F3A20200000D0
:401C8000566F6C2E20616E746572696F723A2020566F6C756D656E2061637475616C3A2024000000436564756C6120202020203A200000004669726D612020202020203A98
:401CC0002000000056616C6F722050726F672E3A2000000044696E65726F204D6573203A2000000044696E65726F2053656D203A2000000044696E65726F20446961203A57
:401D000020000000566F6C756D656E204D65733A20000000566F6C756D656E2053656D3A20000000566F6C756D656E204469613A2000000056697369746173204D65733AA9
:401D400020000000566973697461732053656D3A2000000056697369746173204469613A200000005469706F204375656E74613A2000000053657269616C20202020203AA6
:401D8000200000004375656E746120202020203A20000000456D7072657361202020203A2000000053616C646F2020202020203A20000000436F6E736563757469766F3A29
:401DC00020000000436965727265204E6F20203A20000000496D706F727465202020203A20000000546F742E566F6C202020203A2000000050707520202020202020203A59
:401E00002000000050726F647563746F2020203A20000000506F736963696F6E2020203A200000005469706F202020202020203A200000004B696C6F6D657472616A653AF3
:401E400020000000436F727269656E746500000044696573656C2020200000000000E02EC05D00001800000000366E010000000000000000000000000000000000000000F9
:401E8000000000000000000000000000D619000000000000000000000000000000000000000000000000000000000000000000000000000000000000000000000000000033
:401EC0000000000000000000000000002484FF1FD819000000000000000000000000000000000000000000000000000000000000000000000000000000000000000000002B
:401F000000000000000000000000000000000000000000000000000000000000000000000000000000000000000000000000000000000000000000000000000000000000A1
:401F40000000000000000000000000000000000000000000000000000000000000000000000000000000000000000000000000000000000000000000000000000000000061
:401F80000000000000000000000000000000000000000000000000000000000000000000000000000000000000000000000000000000000000000000000000000000000021
:401FC00000000000000000000000000000000000000000000000000000000000000000000000000000000000000000000000000000000000000000000000000000000000E1
:020000040003F7
:0200000480007A
:40000000055200400264004002650040010301404B04014034050140570601404A0701405614014045150140121601404617014001190140011B014004400140054101404C
:400040000342014003430140024501400146014001470140084801400D490140044C0140024D014004500140015101400C801002110219101C088572870F840F8638848089
:400080000120052009100B0C0D1415201B031D1C1F0221092310290C2B112D103320351F59045F01800C810882308430850F88108B038C348D018E089034910C92089303E3
:4000C00095039608983C99049C029D039F0CA003A403A502A90CAA01AC20AD0FB038B10FB203B404B808BA02BB02BE14C003C740C9FFCA07CBFFCC40CD20CEF0CF05D008E7
:40010000D602D712D804D904DA04DB04DF01E040E1A8E240E3200520062007410D800E440F121440150816061D081EC82210231426022740280829012B022E602F103180B2
:4001400032103304340435203741389239043E863F1045085408560557025E086C016D146F047520762284488E409C80C0F0C2F0C4F0CA7DCCFECEFFD040D640E2100110C3
:40018000072308010D04113C130214021527171819081D1C1E011F212001253F29182F0430033338371F38023A203B804002470449FF4A074BFF4C404D204EF04F055008D0
:4001C000580459045A045D015F01604061A862406320850188118A068E0C900C9104921398209C119D029E0EA610AA13AE08B00FB104B210B301B420B702BA02BE14BF455B
:40020000C036C101C5ECC60BC70EC817C9FFCAFFCBFFCEF0CF44D00CD401D604D804D904DA04DB04DF01E6C0EA40EB020090041008400A400B040C080F02103812011440ED
:4002400019101A401B091C801D011E04204222042540260427012E242F02310232403520364037053B083E8A40104201452048284902504053045406581059025A085B40CE
:400280005C085E046080660867108D1091149314949095089684972099209A239CC49D019E809F01A008A242A701C043C2ABC417CA70CCF9CED2D02AD204D60FD801E24038
:4002C000024806400720084A0A240C030D2C0E640F1112251303151C1722180319141A2C1D091F10232024102510280329302A042B0C3068311F3210340F37203A223E045C
:400300003F4040244105450B46E0470C481949FF4AFF4BFF4EF04F44500C54015604580459045A045B045C115D115F0166C06A406B028009823287089402950C960597137D
:40034000981499119A0A9B069F0CA111A30EA41FA81FAD20AF03B020B130B207B418B50FB902BB20D804D904DC10DF010048036406800A440E1812281320151418441914EE
:400380001A041E181F16210222412744288029102B202E402F403020320133443510374438483B803C084084424048204B8050045228580259045A805B206201828188023E
:4003C0008A2091149240944497289E809F04A004A502A702A904AA20AC08AD40AE10AF01B001C01FC26AC466CA97CC7FCE4AD005D208D60FD80189038B0C92019308970506
:4004000099039B04A103A304AD0AAF04B001B30FBB08D804D904DC02DF010454050108410A010C120E680F02160917051A801D601E011F01201021042401251427402840B5
:400440002B012C042E802F1430283101364A38103DA03E06441847404E0A4F10560A5C016620674287409114920493109410950896819720980899019A019C449E80A02EE1
:40048000A140A246A301A522A702A840AA02AB4CB001C0F0C2F8C4F0CA79CCD7CEF4D070D230D680D8B0E880EE20308033083641CCF08708A480A641A708E6408E01A48087
:4004C000A6418F04A480A6405401D604A401A40186409908A304A480A640A908E640EE20070459086308808083049908A304A480C080D640D840E080E2200C20B001C201C8
:40050000E801B020EE0400030A0310071A0700FF0000300103260000000028010300002600260100000018060000040030000826000008000204000800060410000210082C
:400540000418000103203806202080000000110556020300010000EC30FFFFFF62A0F0410C0000001800040004040404000000010000000000004002001030100010101282
:40058000000000000000000000000000000000008000008B0B00000000000000000202000200000090000890900090000000000000000000000000000000000000000000D7
:4005C00000000000000000000000000000000000000000000000000000000000000000000000000000000000000000000000000000000000000000000000000000000000FB
:4006000000000000000000000000000000000000000000000000000000000000000000000000000000000000000000000000000000000000000000000000000000000000BA
:40064000000000000000000000000000000000000000000000000000000000000000000000000000000000000000000000000000000000000000000000000000000000007A
:40068000000000000000000000000000000000000000000000000000000000000000000000000000000000000000000000000000000000000000000000000000000000003A
:0200000490006A
:0400000000004005B7
:0200000490105A
:04000000BC90ACAF55
:0200000490303A
:020000004414A6
:0200000490402A
:4000000000000000000000000000000000000000000000000000000000000000000000000000000000000000000000000000000000000000000000000000000000000000C0
:400040000000000000000000000000000000000000000000000000000000000000000000000000000000000000000000000000000000000000000000000000000000000080
:400080000000000000000000000000000000000000000000000000000000000000000000000000000000000000000000000000000000000000000000000000000000000040
:4000C0000000000000000000000000000000000000000000000000000000000000000000000000000000000000000000000000000000000000000000000000000000000000
:0200000490501A
:0C00000000012E16106900012E22547D14
:00000001FF